:020000040800F2
:10000000F81F0020D50000087D2000080F1F000801
:1000100000000000000000000000000000000000E0
:10002000000000000000000000000000092100089E
:1000300000000000000000007F2000080B210008E5
:10004000E7000008E7000008E7000008E7000008F4
:10005000E7000008E7000008E7000008E7000008E4
:1000600000000000E7000008E7000008E7000008C3
:10007000E7000008E700000800000000E7000008B3
:1000800000000000E7000008000000000000000081
:10009000E700000800000000E7000008E700000893
:1000A000E7000008E7000008E7000008192800083A
:1000B000E7000008E7000008000000000000000062
:1000C0000348854600F0CAFA00480047A9290008FD
:1000D000F81F00200448804704480047FEE7FEE779
:1000E000FEE7FEE7FEE7FEE7A9210008C1000008E1
:1000F000F0B51FB40646002082B0054640240191A9
:1001000000901BE0019922460F46304600F0D7F8D8
:10011000049A059B801A994110D31046194622462D
:1001200000F0BDF8361A8F410197224601200021C8
:10013000009F00F0B4F838184D4100902046641E2E
:100140000028DFDC019B00982946324607B0F0BD4D
:10015000D2B201E00270401C491EFBD2704700225F
:10016000F6E710B513460A4604461946FFF7F0FFB6
:10017000204610BDF0B51FB488B00B990998002433
:1001800048400999C00F490049080991C0070B99D7
:100190000090490049080B9109990898A646084320
:1001A0001CD00B990A98084318D0099801244000E4
:1001B000420D4800410D099824050003000B20431F
:1001C00009900B980003000B20430B9050181C491A
:1001D0004018002201901446104605E00020014618
:1001E0000DB0F0BD032801DA034600E003239C466E
:1001F000C11A0AAE0AE05F0008ADED5B4F00F75B85
:100200007D430027AA187C41491C5B1E6145F2DD35
:10021000410004AB5A522104120C0A43240C401C26
:100220000828DFDB01980290009970460191009048
:10023000059B049A0799069800F05FF8D0E7000044
:100240000DFCFFFF0EB505490291002100910A4601
:100250000B46019100F051F803B000BD33040000DB
:1002600070B50446002903D000202022012310E0AD
:10027000002801D00020C043C046C0460DE02546FE
:10028000D5408D4205D30D469540641B1D469540D3
:1002900040191546521E002DF1DC214670BD10B5E7
:1002A000202A04DB0146203A9140002010BD9140F5
:1002B00020239C1A0346E3401943904010BD10B51B
:1002C000202A04DB0846203AD040002110BD0B460E
:1002D000D340D0402024A21A91400843194610BDB3
:1002E00010B5002B08DA0024401C614192185B41D4
:1002F0001A4301D14008400010BDF0B51FB482B0D0
:1003000005460C0003D0084602F0DAFB02E002F0DA
:10031000D7FB20300246009021462846FFF7BFFF5A
:10032000049B059A04460F4618431143084314D012
:10033000184610431BD0009840210A1A1846059908
:10034000FFF7BDFF05460E46009A05990498FFF792
:10035000A6FF084305D0012004E02046394607B037
:10036000F0BD0020C11705430E432C4337430099CD
:100370000E986305401A7905E40A00220C43FD0A31
:100380000A3002D500200146E9E70105101969414C
:100390000C9C0D9D00196941FFF7A2FFDFE70000EB
:1003A000F0B507460846584087B0C00F0490480093
:1003B0000E46590040084908BC1A884105D2384603
:1003C00031461E4617460B46024658004008104369
:1003D0004CD0300D039040055900400D490D05905B
:1003E000401A0290402872DA18030121000B090517
:1003F0000843019004980092002805D001995242C8
:100400000020884100920190029840210A1A019927
:100410000098FFF744FF05460C466B4607CB00F0FB
:100420002FF9C0197141039A0E0D0023D7175640BA
:100430001A467A40164344D0049A002A2DD0029AD4
:10044000012A039A15DC1205C01A914101263605CE
:10045000001C7141D20F059ED207009301920296B3
:100460002A462346FFF749FF07B0F0BD384631461C
:10047000FAE71605224A0F46B218C01AB741012101
:100480000905001C4F4100187F4111461818794199
:10049000E20F10436D19644113E0E2076D08154344
:1004A0006408C2071443039A01261205C01A914139
:1004B0003605001C7141CE07400830434908C0187A
:1004C00051412A462346FFF70BFFCDE7FFE704988B
:1004D00001224000C117121A00238B4104983146B3
:1004E000C417381AA141EEE730B40124E407634091
:1004F00030BC55E730B40124E407614030BC4FE71D
:100500000000E0FFF0B50C465C4085B0E40FE40766
:1005100003944C000026640859009446490802469A
:100520000296224321D062460A431ED06200570D34
:100530004A000E032303550D012402462C492405CD
:10054000781B1B0B360B4018234326436146009053
:100550001C46501AB44103D30098401C009002E09E
:10056000921800985B41002803DA0020014605B08C
:10057000F0BD0020012109050746864611E06446CA
:100580001D46141BB54106D36546521BB341744644
:1005900007430C43A646CD07400849082843921854
:1005A0005B4105460D43EAD11046184313D060461F
:1005B000194650407140084306D06046101AB341B6
:1005C00006D20122002306E000220123DB0702E01D
:1005D0000122D2435310009874460105381C614132
:1005E000029C039D00196941FFF77AFEBFE70000F6
:1005F000FD0300004A0009030123090B1B051943F1
:100600000A4B10B5520D9A4202DA0020014610BD85
:10061000064B34339A4203DC9A1AFFF750FE10BDA2
:10062000034BD218FFF73BFE10BD0000FF03000094
:10063000CDFBFFFF10B5002904DB0124E407404295
:100640008C412146002B04DB1C460123DB07524270
:10065000A341994200D1904210BD0000064C0125F3
:10066000064E05E0E36807CC2B430C3C984710345A
:10067000B442F7D3FFF728FD1035000830350008E5
:1006800010B5202A06DBCB170846203A1041C117C7
:100690000B4306E00B461341D0402024A21A9140A0
:1006A0000843194610BD70B5046C456C1C262E40DD
:1006B0000125B540656004686360806810281346B2
:1006C00000D00B46A360102800D01146E16070BD39
:1006D00001A002F071FEFEE70D0A53797320457206
:1006E00072210D00F8B5029101900020009000F0F9
:1006F000EFF9684603A900F085F900280CD008A09E
:1007000002F05AFE00F0B6F901460AA002F0C8F95C
:1007100003990CA002F0C4F900F0B0F98FBDC046F7
:10072000464C415348204572617365204661696CAF
:100730000D0000004661696C20436F64653A2564D2
:100740000D0A00004661696C20506167653A2564B6
:100750000D0A000010B5DC4A00215161012252024D
:10076000EF4B1C6814431C601A68082414431C6077
:100770007F229043016010BD70B501223E480168A0
:10078000C90501D4002105E01102CF4B5C690225A7
:1007900025435D6103689B0505D55302CA4C656915
:1007A00015436561194303685B0506D59302C64C82
:1007B000656908262E436661194303681B0506D543
:1007C000D302C14C656904262E4366611943036850
:1007D0009B0406D55303BC4C656910262E43666105
:1007E000194303689B0305D5B74B5C6920252C434F
:1007F0005C6129430368DB0306D51204B24B5C69D4
:10080000402525435D611143016070BDF8B5044684
:10081000194F00F049FA05463868C0070AD0601C35
:10082000FAD00326002C24D000F03EFA401BA04250
:10083000F2D91EE03868800701D502203860386898
:10084000C00513D43868800510D4386840050DD42D
:10085000386800050AD43868800407D438688003F3
:1008600004D43868C00301D4002602E0FFF784FFF7
:1008700001263046F8BDC0461820024010B525219B
:10088000425C01462431022A12D1026813680E2408
:10089000A343136013680124A3431360026C406CEC
:1008A0001C2303402046984050604C70002002E01A
:1008B0000422C263012000220A7010BDB0B52521B8
:1008C000415C022919D101462431026813680E24C3
:1008D000A343136013680125AB431360026C436CA0
:1008E0001C241C402B46A340536000240C704D7008
:1008F000816B002904D0884702E00421C1630124F0
:100900002046B0BDF0B585B0002840D0044605466D
:100910002435022068701F48206426681E4830185D
:100920001421FFF79DFC80000090606432681B4931
:100930001140274608378CCF60690190A06902906A
:10094000E0690390206A04901143194339430198E8
:1009500001430298014303980143049B194331600A
:1009600001218B039A420DD01C22009810400F22C7
:1009700082400B4B1E6896431E6062688240186876
:10098000104318600020E0632870697000E00120C7
:1009900005B0F0BD00000240F8FFFDBF0F80FFFF73
:1009A000A8000240F8B505462420285C022401284E
:1009B00025D028462430012606704778012F11D112
:1009C000022444700024EC6328680768B74307607A
:1009D0002846FFF768FE286801682A6B002A04D0C1
:1009E0000E2207E00021017009E00422914301601A
:1009F00002680A2111430160016831430160204609
:100A0000F8BD0000FEB505462F4E307C012801D10F
:100A10000220FEBD0F46012434742C48FFF7F6FE79
:100A2000002824D100200190C043029738606868F4
:100A30003B4E0746A968C9010818874212D23846BA
:100A4000FFF788FE2148FFF7E1FE31680822914355
:100A50003160610232688A433260002804D16868DC
:100A60008037E7E7019801E002990F60164E0021F8
:100A70003174FEBD144840697047C046284801687B
:100A800002220A430260016801220A430260002038
:100A90007047C046F8B50C4F387C012801D10220C0
:100AA000F8BD14460D4601203874084E3046FFF755
:100AB000ADFE002805D1002078612C603046FFF79C
:100AC000A5FE00213974F8BD4C01002050C3000080
:100AD00013480168C9070DD0EFF31081EFF31082BE
:100AE00072B6104A8260104A826081F310880168F1
:100AF000C90712D1016889070DD5EFF31081EFF313
:100B0000108272B6094AC260094AC26081F3108835
:100B10000068800701D40020704701207047C0465C
:100B200004200240EFCDAB8905040302BFAE9D8CCB
:100B300016151413F0B589B0584A904201D0062317
:100B400000E005230B221207029080180A22D041F0
:100B50000090042800D30093002005460890044626
:100B600003910E683046E04000D195E001230593E3
:100B7000A3401E4000D189E007944A680320144630
:100B80000440671E012F0695049216D80327AF4034
:100B9000029DA868B843CA6806998A400243AA60C1
:100BA0000498C006C00F079988406A689A430243B8
:100BB0006A60069DFB4349000AE00146A940CB4319
:100BC000032C294604D129460446029F049A20E0BA
:100BD000029FF86801931840039B9A688A40024379
:100BE000FA60022C13D11C20089A10400F22824078
:100BF000079CE408A4003C19256A95431A698240C1
:100C00002A43069D22625A680324144000E0049A95
:100C1000019B8C4038681840204338609003800F57
:100C200003991F4F079C31D0444A1068059B184315
:100C300010600C20089A10400F2383400322944335
:100C4000184D62599A43009B834013436351B8681F
:100C50004C68E20201D5304300E0B043069DB86025
:100C6000F868A20201D5304300E0B043F86078682C
:100C7000A20301D5304300E0B04378603868E20356
:100C800001D5304300E0B043079C38600898001D50
:100C90000890AD1C641C64E709B0F0BD001C005056
:100CA0000004014008000140054800687047C04644
:100CB0001C48007802490A68101808607047C0464E
:100CC000F41B002080B5DD48016840220A43026021
:100CD000032000F009F8002801D0012080BD00F0B9
:100CE00023F8002080BDC04670B504467D20C000BA
:100CF0000C4E3178FFF7B4FA0146D2480068FFF78E
:100D0000AFFA00F021FD0125032C08D8002806D1F8
:100D10000025E84321462A4600F01EF87460284664
:100D200070BDC04604000020044801680122114340
:100D30000160110742680A43426070473410024064
:100D4000002805D41F21084001218140014801608D
:100D50007047C04600E100E080B501F063FD80BD52
:100D6000F0B585B00768B906E54B65D50490012557
:100D70002907986B0840039002D1986B0843986349
:100D800002912F024B4C2068C0050FD420683843D5
:100D90002060FFF789FF06462068384206D1FFF73A
:100DA00083FF801B6428F7D9032571E00324260400
:100DB0000498416808463040D14B1A6801942405D4
:100DC000B04205D15140214002D0196889035FD457
:100DD0000094196D314012D0814210D004980078EF
:100DE00080060CD5186DE9041A6D0A431A651A6D50
:100DF0008A431A650146B143196538424BD10498BC
:100E00000768B90611D5426811463140B14209D18F
:100E1000009B1A4003231B05E34C24689C43E24BD0
:100E200014431C601A6D0A431A650399002903D103
:100E3000996B029A91439963F90705D0D96C032203
:100E4000914382680A43DA64B90705D5D96C0C224C
:100E50009143C2680A43DA64790706D503218902FF
:100E6000DA6C8A4301691143D964390706D5032135
:100E70000903DA6C8A4341691143D96400253906B4
:100E800006D503218A04D96C914380690843D8644C
:100E9000284605B0F0BDFFF707FF05469A4CC24B48
:100EA000186D8005ABD4FFF7FFFE401BA042F6D9BA
:100EB000019DEDE700700040FEB5002844D00E46CD
:100EC00002905E480068012101910840B04214D2AE
:100ED0005A4908680125A843304308608A4CFFF747
:100EE000E3FE0746554800682840B04205D0FFF7AA
:100EF000DBFEC01BA042F5D924E0029C20688107DC
:100F0000904D05D52968F0229143A2680A432A60D2
:100F1000C0071BD12F464948016801200140B1425A
:100F200020D9464A116881431160774CFFF7BCFE17
:100F3000054642480068C00714D0FFF7B5FE401BC5
:100F4000A042F6D90320FEBD0120FEBD62682946FD
:100F50000C39012A2AD0032A2BD0022A2CD1096865
:100F600089032BE0029B1868410706D50721090277
:100F70003A688A43D96811433960000707D50720CA
:100F8000C002396881431869C0000843386000F026
:100F9000DDF839680906090F294A515CC8406849DB
:100FA00008605B480068FFF79FFE09E00968490791
:100FB00004E00968890101E009688905019800D405
:100FC000FEBD296803200190814311432960FFF78A
:100FD0006BFE074660684C4C032829D002281CD0C1
:100FE00001280AD128680C210140042992D0FFF77A
:100FF0005BFEC01BA042F5D908E028680007800FFF
:1010000088D0FFF751FEC01BA042F6D90198FEBD63
:10101000FFF74AFEC01BA042F8D828680C21014007
:101020000829F5D176E7FFF73FFEC01BA042EDD8B7
:1010300028680C2101400C29F5D16BE70020024003
:10104000D83300080C000020FEB5574D68682D49C4
:1010500001400B2000030818686001263702286849
:1010600038432860FFF720FE04462868800506D430
:10107000FFF71AFE001B0228F7D90320FEBD0097D8
:10108000E868032101918843E8601F4FE868000782
:10109000800F06D0FFF708FE001BB842F6D9019872
:1010A000FEBD27481949016019480068FFF71CFE7A
:1010B000002800D0FEBD2868164901402960300490
:1010C0002968014002910298B0042968814329608F
:1010D000FFF7EAFD0446009F2868800105D5FFF769
:1010E000E3FD001B0228F7D9D9E70020E86028615A
:1010F000BF37AF61F1052A6D0A432A65FEBDC046C0
:1011000000100240FF00FF008813000068FF1F006E
:1011100008000020F4FFF6FE094800680949096844
:101120004905490F084A515CC840704704480068A7
:10113000044909688904490F034A515CC840704753
:101140000C0000200C100240E833000810B5164ACD
:10115000D1680807830F15487B441B795B009F44C7
:101160000108070D0120000451680904490F884057
:1011700010BD1068C00610D50E4810BD8B021B0FA5
:101180000B4CE35C0902890F491CD468E40307D4C3
:101190001068C00603D4084802E0074810BD05489F
:1011A0005843FFF75DF810BD0010024000127A00AE
:1011B000F033000800093D000024F400F0B589B0C8
:1011C000002850D0FC4EF1680C220A400692012102
:1011D00005910904F76804910F4007900078C00753
:1011E00010D00698082806D006980C2800D0C0E039
:1011F000002F00D1BDE03068800303D50798406818
:10120000002844D00798007880072ED407980078EB
:10121000C0063ED407980078000756D4079908788E
:10122000400700D585E04C6A002C1AD006980C289F
:1012300000D028E1012C2AD0F068049A0240079BD4
:10124000996A8A4223D10F2189040140DA6A9142C6
:101250001DD1032189050840196B8842059800D0EB
:1012600062E1002060E101205EE1079BD8680699F9
:10127000042906D006990C2900D0A4E0002F00D044
:10128000A1E03168002835D10422114032D0059800
:101290004AE10698002800D1ABE0306801214C02F9
:1012A000079A92690902002A00D1DCE00843306005
:1012B000FFF7FAFC05463068204200D004E1FFF752
:1012C000F3FC401B0228F6D92DE1306D07994969DE
:1012D000002900D1B6E0012108433065FFF7E4FCA6
:1012E0000546306D800799D4FFF7DEFC401B0228CD
:1012F000F7D918E11F21090272688A4319690902A6
:101300001143716031680922914301433160FFF755
:101310001DFFF1680906090FC44A515CC840C44961
:101320000860C4480068FFF7DFFC002800D0FBE03D
:101330006CE701221107B06B0840029002D1B06B3C
:101340000843B063019103921402BB4F3868C00593
:1013500023D4386820433860FFF7A6FC0546386878
:1013600020421AD1FFF7A0FC411B03206429F6D9C3
:10137000DAE0079840680499884209D005210904F9
:10138000884200D0B1E005988004316801433160A3
:101390003068049908433060B7E007988068039A82
:1013A0005702002800D1DCE005210902884200D163
:1013B000ECE0A04200D1EDE0306DA0433065910239
:1013C000306D8843E8E03168002800D1AEE00922A2
:1013D000914301433160FFF767FC054630684007E1
:1013E00000D5B4E0FFF760FC411B03200229F5D9CA
:1013F0009AE030688005079B03D59869002800D1E2
:1014000045E70720400371688143186A0143716012
:10141000FF21090672688A43D96909068918716033
:10142000400B04998140F0680006000F7F4A105C71
:10143000C1407F4801607F480068FFF755FC0028E5
:1014400072D1E7E6012188433065FFF72DFC0546A0
:10145000306D800700D4E1E6FFF726FC411B032036
:101460000229F5D960E088433060FFF71DFC05468E
:101470003068204200D1CDE6FFF716FC411B032067
:101480000229F5D950E00120010632688A43326012
:101490004706FFF709FC0546022C0AD1306838429E
:1014A00000D195E0FFF700FC411B03200229F5D98C
:1014B0003AE03068384200D1D3E6FFF7F5FB411B34
:1014C00003200229F5D92FE00720400371688143EA
:1014D000079A106A08437060FF2000067168814314
:1014E000D06900064018706094E63168049A914310
:1014F0003160316811400891089905998904326872
:101500008A433260002800D180E005984404FFF748
:10151000CBFB05463068204200D073E6FFF7C4FBE2
:10152000401B6428F6D9032009B0F0BD0120814397
:101530003160FFF7B9FB05463068400700D465E627
:10154000FFF7B2FB411B03200229F5D9ECE71F206E
:1015500000027168814307980069000208437060C7
:1015600054E6306DA04330659002316D81433165A2
:10157000FFF79AFB0546314C306D38421ED0FFF71D
:1015800093FB411B0320A142F6D9CDE79002316DB8
:1015900001433165306D2043284C3065FFF784FBF3
:1015A0000546306D384209D1FFF77EFB411B032011
:1015B000A142F6D9B8E7C0460010024002980028C0
:1015C000079900D02FE6B06B019A9043B0632AE6EA
:1015D000FD200004F1688143079B28330DCB0843AD
:1015E00010431843F0606248401C31680143316089
:1015F000FFF75AFB04463068384200D031E6FFF767
:1016000053FB011B03200229F5D98DE705984404FB
:10161000FFF74AFB05463068204200D1F2E5FFF7AC
:1016200043FB411B03206429F5D97DE7D83300082B
:101630000C0000200800002000700040881300000B
:10164000890000684018006D7047890000684018E4
:1016500002657047B0B5002848D0044605462035DD
:101660006878002804D100202870204600F042F855
:10167000022068702068C168C90633D4CA2141625B
:1016800053214162204600F0FBFC002824D1206851
:101690008168174A0A408260616822690A43A16929
:1016A000114382680A438260E1680161A16809040C
:1016B00002690A430261204600F010FD00280BD1A8
:1016C0002068C16C03229143C164E16962690A43E5
:1016D000C16C1143C16400202168FF224A620028C6
:1016E00000D0B0BD012068700020B0BD0120B0BDA9
:1016F000BFFF8FFF00680549884200D07047012076
:10170000800403490A6802430A60704700280040C9
:101710005010024070B5044600680949C160FFF7E7
:10172000C3FA0546074E2068C068800606D4FFF756
:10173000BBFA401BB042F6D3032070BD002070BD41
:101740005F7F0100E9030000401E010E01D001206F
:1017500070470749074A5060074803680B40032158
:1017600089075918016000209060072111607047B7
:10177000FFFFFF0010E000E020ED00E0B0B53822F0
:10178000825C012A01D10220B0BD02463832022318
:101790005370006843687024A3430D681D43846838
:1017A000456001239D07A84205D0314DA84202D0D3
:1017B000304DA84204D18025AC4349682143816063
:1017C000002010705370B0BDB0B5002819D0044689
:1017D000054638356878002804D100202870204656
:1017E00000F012F80220687001CC214600F0DEFC07
:1017F0000120A871A870E8702871687168700020D5
:10180000B0BD0120B0BD000000680549884200D08D
:1018100070470448016810220A4302607047C046BE
:1018200000100040381002403921415C012918D1D4
:101830000146393102220A70016801229007814273
:1018400005D00B48814202D00A4881420BD18868FA
:10185000072303400020062B09D00B6813430B60BD
:1018600070470120704708681043086000207047E7
:10187000001401400008014001680A6A054B1A4241
:1018800003D10A6801239A430A6039210122425494
:10189000002070471111000070B5044680202058C8
:1018A000202817D10120002913D0002A11D00125AA
:1018B0002803A368834204D12069002801D1C80706
:1018C0001ED1256600266666204600F013FF00281C
:1018D00002D070BD022070BD206E01282846F8D1CC
:1018E000206810210162EFF31080012282F310883A
:1018F000226813680B43136080F31088304670BD74
:10190000284670BDF8B50D460846FEF79BFC00243E
:10191000274B2246FEF72EFC0246009525A00B46DB
:1019200001F0BEF83048C67930A001F045FD082E20
:101930000DD0334801F040FD32482B49324C22464D
:10194000FFF7AAFF31A0214601F0AAF8F8BD3E4EEC
:10195000306844623046FFF767FF3C483C4988479F
:101960000320C1013B4F3846FEF7BCFE3068416A98
:10197000394801F095F8306844623848344988475E
:10198000194938462A4600F0C3FA3068416A34489B
:1019900001F086F833482E4988473046FFF76CFF40
:1019A000314821462246FFF750FE00F05BFFC0465B
:1019B0000000503F0D0A5265636569766520636FCC
:1019C0006D706C6574656421202846696C652053D0
:1019D000697A653A252E32664B623D2564627974D8
:1019E00065290D0A00000000640100200D0A43680B
:1019F00065636B696E6720646174612E2E2E0D0025
:101A0000B4340008C4000020901A0000506C6561D6
:101A100073652073656E6420616761696E202E6254
:101A2000696E2066696C6520286C65737320746824
:101A3000616E2025644B622920746F2053544D330E
:101A400032202E2E2E0D0A0084000020E3340008E0
:101A5000B93300080040000870340008CC34000896
:101A600091340008F734000860000020704700003F
:101A700080B503A001F0A0FCFEF72AFE80BDC046A1
:101A800055415254204572726F72210D00000000C2
:101A9000F0B585B006460068C269016804965836FC
:101AA00085680124E3021F460F373A4202940396E9
:101AB00070D00E4621469E4C34402F460F40314692
:101AC0003C196BD0D40708D0CC0506D50299016229
:101AD000039DEC6A0C433146EC629407039E07D5E4
:101AE000002F05D002240462F46A04252543F56220
:101AF000540707D5002F05D004240462F46A022598
:101B00002543F562140708D520240C403C1904D065
:101B100008240462F56A2543F5621A4206D04C0196
:101B200004D50362F36A20241C43F462F36A002B99
:101B3000049C76D0920607D5890605D5A16E0029AA
:101B400002D0204688472068F16A28220A4080682F
:101B500040252840801859D0204600F09AFC206883
:101B60008068400649D5EFF31080029981F3108810
:101B700021688A68AA438A6080F31088606F002811
:101B80003BD06C498163FEF799FE002849D0606F15
:101B9000816B45E0930601D58B0632D4049F3B6EE2
:101BA000012B03D1D30601D5CB063CD4D30201D5FA
:101BB0006B021BD4100601D508062DD4500630D573
:101BC00048062ED5EFF31080029981F3108839680A
:101BD0000A6840239A430A6080F310880020F86660
:101BE0002020F867384600F091F91AE002990905BB
:101BF00001623846FFF73AFF13E02046FFF738FF4F
:101C00000FE00498816E00290AD10AE02046FFF710
:101C10002FFF0020F06204E0F96E002901D0384661
:101C2000884705B0F0BD102101628068400633D4BA
:101C3000039E708832887388002BF2D0101A020439
:101C4000EFD0EFF310820190029880F310880923FF
:101C50005B013C6825689D43256082F31088EFF3A3
:101C6000108280F310883B689C6884439C6082F3F8
:101C700010882022B2620022BA663A66EFF3108220
:101C800080F310883B681C688C431C6082F31088CA
:101C900002217966019845E0786F026853689DB229
:101CA000002D039EBDD030888542BAD27380126861
:101CB000920633D4EFF31080029D85F310881E4AFC
:101CC00020323B681C6814401C6080F31088EFF3DE
:101CD000108085F310883A689368AB43936080F373
:101CE0001088EFF3108085F310883A6893684024D9
:101CF000A343936080F310882020B06200203866F0
:101D0000EFF3108085F310883A6813688B431360F3
:101D100080F31088786FFEF7B1FD30880221796674
:101D20007188401A81B23846FFF7ECFD79E7C0466A
:101D3000200100047D230008DFFEFFFFB0B500286E
:101D40002ED00446C06F002805D1782000212154F0
:101D5000204600F029F82420E0672068016801256A
:101D6000A9430160204600F0D1FB012819D0606A28
:101D7000002802D0204600F049FA0920C00221685C
:101D80004A6882434A6088682A22904388600868CB
:101D9000012202430A60204600F094FA054600E062
:101DA00001252846B0BD0000F0B587B004460068A4
:101DB000B14988423AD10125A80382498A68024381
:101DC0008A60086828430860086828400190042059
:101DD00006900327059700260496022003907802B8
:101DE000029001980520000702A9FEF7A3FE280330
:101DF0000F4D286280200F4982C52E606E60A8605A
:101E0000EE602E616E61083D2846FEF77BFD0028DE
:101E100001D0FEF75DFCAC6265671B240021204603
:101E20000A46FEF799FF2046FEF78AFF07B0F0BD8D
:101E3000180000203000024070477047F0B585B0B0
:101E40000746C06F202827D10120002959D0002A39
:101E500057D001200503BC68AC4204D13C69002C7A
:101E600001D1CC074DD10291039316463C46503424
:101E70000195002565632120F867FEF715FF0490A2
:101E800066802680B8680199884202D138690028A6
:101E900004D0029E029502E0022032E0002603995F
:101EA000608800281ED000918021002538462A46EF
:101EB000049B00F06FFC002820D1002E04D0307865
:101EC00039688862761C08E0029A10880E4908403A
:101ED00039688862921C02922E4603996088401EDF
:101EE0006080DDE70091402100223846049B00F02D
:101EF00051FC2021F967002802D102E02020F86778
:101F0000032005B0F0BDC046FF0100007047FEE7AA
:101F1000F8B50C46054690079708002800D07F1CAE
:101F2000FEF7D6FD0FA6002F1AD0E0780006A178A4
:101F30000904081861780902401821784218022023
:101F40002946FEF7A7FD002806D03046294600F0B6
:101F5000A7FDFEF7BDFB00E02D1D241D7F1EE2E75F
:101F6000F8BDC046577269746520466C617368207D
:101F70006661696C20617420307825780D0A000054
:101F800081B00548016801221143016000681040DA
:101F90000090009801B070473010024082B00948AC
:101FA000016880221143016001681140019101998B
:101FB0000168012211430160006810400090009800
:101FC00002B070472C10024010B50A480021FF22D1
:101FD0007F23094C046041608360C26001614161FC
:101FE0008161C161FFF736FB002801D0FEF770FB6D
:101FF00010BDC04660000020002800401CB50D4800
:10200000002141610C4A0D4B0D4C0460436081601E
:10201000C26001910091FFF7D7FB002801D0FEF7C5
:1020200057FB04486946FFF7A9FB002801D0FEF7DB
:102030004FFB1CBD84000020FFFF0000FF7C000060
:102040000010004010B50B4800210C220A4B016221
:1020500041624B24640218C0016041608160C2602B
:10206000016141610838FFF769FE002801D0FEF7E1
:102070002FFB10BDC400002000380140FEE7704770
:10208000FEB504460068C168490620D4C1688022B4
:102090000A43C260204621300190FEF705FE054646
:1020A0000020029001270C4EF8432168C968890975
:1020B0000143C8070DD1FEF7F7FD401BB042F3D333
:1020C000042001990870012002900027ECE700200D
:1020D00000E00298C0B2FEBDE9030000B0B50446BE
:1020E0000068C16880229143C16080680025800635
:1020F00008D42046FFF70EFB002803D0212004213E
:10210000215401252846B0BD704780B5FEF7D0FDAB
:1021100080BD000070B59AB00DAC204608301C257B
:102120002946FEF71CF808A81421FEF718F801A8A4
:102130002946FEF714F80325E8021A490A68824383
:1021400001201290C302D2180A60A904189102213A
:10215000169109210D9181051991000417900E9097
:102160002046FFF72BF8002819D100260C960B9675
:102170000A9609950F20089008A801242146FEF729
:102180009BFE00280BD10396212001906004029051
:1021900001A8FEF7E5FD002801D11AB070BDFEF7D9
:1021A00097FAC0460070004070470000B0B5046860
:1021B00001229507A84205D0124B984202D0124B3B
:1021C000984206D170239C434B682343A84201D117
:1021D00007E023460B4CA04203D00B4CA0421C4608
:1021E00004D103242402A343CC681C4380239C43D2
:1021F0000B69234303608B68C36209688162426193
:10220000B0BDC0460014014000080140B0B5416AAD
:10221000CA0707D00122520403685C689443826AAB
:1022200022435A608A0707D50122120403685C68BA
:102230009443C26A22435A604A0707D50122920496
:1022400003685C689443026B22435A600A0707D50F
:102250000122D20303685C689443426B22435A60B4
:10226000CA0607D50122120303689C689443826B57
:1022700022439A608A0607D50122520303689C68AC
:102280009443C26B22439A604A0610D5012213057B
:10229000026854689C43056C2C4354609D4206D1EF
:1022A00003235B0554689C43436C23435360090636
:1022B00007D50121C904026853688B43806C184319
:1022C0005060B0BDFEB50446842000262650274647
:1022D0007837FEF7E9FC03462068016809071CD53A
:1022E00025480090012002904105002220461D460D
:1022F00000F050FA00280ED0EFF31080029981F31D
:10230000108821680A6880239A430A6080F3108845
:102310002020E06726E020682B460068400723D590
:10232000154800900125A9050022204600F032FA48
:10233000002819D0EFF3108085F310880921490196
:10234000226813688B43136080F31088EFF31080CA
:1023500085F3108821688A68AA438A6080F3108810
:102360002020B860032005E02020E067B8602666E2
:10237000666630463E70FEBDFFFFFF0180B5806A95
:102380000146523100220A8152214252FFF770FB6E
:1023900080BDF8B5846AE36F802166582068826842
:1023A00025465235212B07D10A4005D00020288030
:1023B000204600F09BF82068274680378068222E50
:1023C00007D14021084004D000202881204600F099
:1023D00060F878681021014379602046FFF748FBD8
:1023E000F8BD70B50146806A02465832096809682E
:1023F000890632D400215180EFF31083012181F34B
:1024000010880C0205682E68A6432E6083F310889E
:10241000EFF3108381F310880468A5688D43A560ED
:1024200083F31088EFF3108381F310880468A568A4
:102430004026B543A56083F3108820239362036E82
:10244000012B0AD1EFF3108381F3108801680C6827
:102450001025AC430C6083F3108800214166016EA7
:10246000012903D11188FFF74DFA70BDFFF7E4FC95
:1024700070BD80B5806A01214166016E012905D1D8
:102480005821415A4908FFF73DFA80BDFFF7D5FCB6
:1024900080BDB0B5EFF31082012181F310880923CC
:1024A0005B01046825689D43256082F31088EFF383
:1024B000108281F3108803689C688C439C6082F3CF
:1024C0001088026E012A0AD1EFF3108281F310887E
:1024D00001680B681024A3430B6082F310888021ED
:1024E00020224250002181660166B0BD10B5EFF395
:1024F0001081012282F3108802681368C024A3436C
:10250000136081F310882021C16710BDF8B504461F
:1025100001680868684B0340A0682269024360694B
:102520001043E269104318430860032630034B68E8
:102530008343E06818434860A569604B994202D024
:10254000206A284300E028460B252D028F68AF4300
:1025500007438F605A48814208D099420AD05948AF
:1025600081420FD15848C06C59A507E05648C06C4D
:10257000800802E05448C06C800A544D8007000F68
:102580002F5800E010270125E803994210D082421D
:102590001ED1082F00D985E07F443F797F00BF44DA
:1025A000043036813C8181814000FEF7B5FD36E084
:1025B000082F00D976E0C0467F443F797F00BF44B2
:1025C000047115711B7171715900FEF7A5FD15E0BD
:1025D000082F67D87F443F797F00BF4404153263DA
:1025E000386363633C00FEF797FD32E036480068CD
:1025F000C0063ED53B483DE0FEF7A8FD002839D196
:1026000035E0FEF793FD0AE0FEF790FD21E02E484D
:102610000068C0064BD5334803E0FEF797FD00285D
:1026200025D0400061684A081018FDF719FE0246DF
:10263000103A2D498A4235D201400007400F084325
:1026400013E021480068C00633D5264803E0FEF7B2
:102650007DFD00280BD061684A081018FDF700FEC8
:1026600001461039204A91421CD22168C8600025D9
:1026700018E01B4862685643B04213D311038842E6
:1026800010D8010E530800020026C01871413346CD
:10269000FDF72EFD15494118154A914202D82168CF
:1026A000C86035460020A066E0662846F8BD0C48A4
:1026B000B7E70B48CFE7C046F369FFEF004800409B
:1026C000004400400038014000100240FC33000884
:1026D00001000000040000000200000008000000EB
:1026E0000024F40000093D00F0FF000000FDFFFFA2
:1026F000FFFC0F00F8B51346054658202A522E4617
:1027000058360024F46269652220B062686F0028A0
:1027100013D00A461D4F1E49C16207631A4941631F
:10272000846329682431FEF73DF9002805D0102084
:10273000F0622020B062012424E0286900280BD038
:10274000EFF31080012181F3108809022A681368D1
:102750000B43136080F31088EFF31080012181F3A5
:1027600010882A6893680B43936080F31088EFF316
:10277000108081F3108829688A68402313438B6096
:1027800080F310882046F8BD9323000873240008C6
:10279000E3230008FEB5029316460F46054603687C
:1027A000014678310191089CD9693940C91B4A42D8
:1027B0004A41B24222D1611CF6D0FEF775FA029965
:1027C000401A0322A0421AD8002C18D02B6819688E
:1027D0004907E9D5D969090713D4D9690905E3D5AA
:1027E0000121C902196228461446FFF752FE22460B
:1027F0000020019908702020C86000E000221046E7
:10280000FEBD08241C622846FFF743FE0020019904
:102810000870CC600122F2E780B58F48FFF738F9E5
:1028200080BDC046002805D40322034693430C4ACA
:102830009A1806E00F220240083A03239A43074BF6
:10284000D2188007C00E8901C9B28140FF2383409E
:1028500010689843084310607047C0461CED00E0C4
:1028600000E400E0BFF34F8F034804490160BFF369
:102870004F8F00BFFDE7C0460CED00E00400FA05F5
:10288000E0B501900020C343734801A90122FFF77E
:10289000D5FA01988CBDC04670B504461DA000F065
:1028A0008BFD264D6868000E082823D120682C492E
:1028B000014001267007814221D12AA000F07CFD51
:1028C0002DA0294600F0ECF86068334D2860686060
:1028D00086F3108831480026066046608660FEF761
:1028E000B3FBF0432E492F4A202E09D07050B05030
:1028F000361DF9E712A000F05FFDFDF7E9FE70BD9F
:10290000002080F31088206880F30888686880477A
:1029100070BDC0460D0A436865636B696E672074BD
:102920006865206170702070726F6772616D2069D8
:102930006E20666C6173682E0D0000000040000878
:102940000D0A4572726F723A496C6C6567616C2052
:102950004150502070726F6772616D210D00000050
:102960000000FE2F0D0A436865636B20706173736E
:10297000656421200D000000426F6F74696E67204E
:1029800066726F6D20666C617368206174203078A8
:1029900025780D0A000000001000002010E000E083
:1029A00080E100E080E200E0FEF78CF9FFF7B2FB87
:1029B000FFF7F4FAFFF7E4FAFFF744FBFFF71EFB1B
:1029C000FFF702FB10480021FEF73AFE0F4988424C
:1029D00016D1104C104D2046A8471048A84710A00B
:1029E000A8472046A8471BA000F0E6FC1A481B4950
:1029F0001B4C2246FEF750FF1AA02146A847FEE7CF
:102A00000348FFF749FFFEE7600000203412000092
:102A1000004000083E340008A12A00080C340008D9
:102A20000D0A202A2A2A20202020202020202020B1
:102A30002020202020202020566572736F6E2031C8
:102A40002E3020427920546F6D6F6F6420202A2A27
:102A50002A0000000D000000C400002064010020D6
:102A6000901A00000D0A506C656173652073656EE5
:102A700064202E62696E2066696C6520286C65731F
:102A800073207468616E20256462797465292074EE
:102A90006F2053544D3332202E2E2E0D0A0000008D
:102AA0000FB410B503A9044B044A029800F0E8F8EB
:102AB00010BC08BC04B018478128000800000020A2
:102AC0002021020C01D010211046020A01D010462C
:102AD0000839020901D01046091F820801D01046AA
:102AE000891E420801D0881E7047081A704702E00C
:102AF00008C8121F08C1002AFAD170477047002089
:102B000001E001C1121F002AFBD17047F0B51FB4CC
:102B100086B00998089A030D0021024314D0514849
:102B2000514A1818504305141198012810981AD0CA
:102B3000281A401C00264D4F4D49009601910490E3
:102B4000002812DA444211E01198012449A3012817
:102B500001D11098C1430698119A84600360C26045
:102B600041600BB0F0BD4042E4E70446210500207F
:102B70003F4A001C51410391029012E0E00707D048
:102B800032463B4601990098FDF7F4FA0191009016
:102B900032463B4610461946FDF7ECFA06460F460C
:102BA0006410002CEAD10498039B0028029A09992A
:102BB000089806DAFDF7DEFA019B009AFDF7DAFACB
:102BC00005E0FDF79FFC019B009AFDF79BFC044686
:102BD0000E460022284BFDF72DFD03D80020C043F0
:102BE000014607E00022254B20463146FDF7D8FB81
:102BF000FDF700FD102409E0002C0ADB0A22002367
:102C0000FDF776FA079B30321A55641E02460A43D6
:102C1000F2D11122641C079B121B1C19119B012B62
:102C200003D0012308430ED10AE0084304D0112049
:102C300010900020119077E71098151A6D1E0BE088
:102C40001098824202DD00236D1C03E0824201DA0B
:102C500000236D1E002BEED0069811998260C16092
:102C600030C07EE701FCFFFF104D00000000144063
:102C70000000F03F300000000000F0430000E03FA3
:102C8000FFB597B00646002518E2252877D1002425
:102C90002746FD49049400E00443761C3278012065
:102CA000203A90400842F7D130782A280ED00222EC
:102CB000307801463039092916D804990A23594336
:102CC000303940181443761C0490F1E7189802C874
:102CD00004911890002904DA01204003044348427B
:102CE000049002200443761C30782E2814D104204E
:102CF00004437078761C2A2809D11898761C80C85D
:102D0000189009E00A214F43303FC719761C3078EC
:102D1000014630390929F5D930786C2810D006DC05
:102D20004C281AD068280ED06A2817D104E07428DD
:102D300013D07A2812D110E00120400504430CE0A2
:102D40000121090501E0032109050C437178814245
:102D500003D1012000052418761C761C30781190D0
:102D600066280BD013DC58287DD009DC00287BD0E6
:102D70004528F6D04628F4D047281AD1A5E118E016
:102D8000632835D0642870D0652812D19DE1702861
:102D90006CD008DC6728F1D069287BD06E280DD074
:102DA0006F2806D1BAE073282ED0752871D0782804
:102DB00059D01A9A199990476D1C7EE16002400F14
:102DC000022809D003280DD00428189801680DD0D6
:102DD0000D60001D189070E11898EA1701680D60E9
:102DE0004A60F6E7189801680D80F2E70D70F0E789
:102DF00018986A4601781172001D189000205072D0
:102E000002A80090012005E0189802C81890002040
:102E10000091C04361070DD5002101E00199491CD3
:102E20000191B94212DA8142F8DB009A515C002923
:102E3000F4D10BE0002101E00199491C019181428C
:102E4000FADB019A0099895C0029F5D1019904986F
:102E50001A9B471A21463846199A00F097FA0199A9
:102E6000401945180BE04FE02CE113E04EE00098CC
:102E700000990078491C00911A9A19999047019875
:102E8000401E0190401CF2D1214638461A9B199AE7
:102E900010E137E00A200021009001916002410F0B
:102EA000022907D0189A01CA1892C217944603291A
:102EB00008D00AE01898C01DC108C90005C91891BA
:102EC000944607E000B2C2179446042902D140B2EA
:102ED000C1178C4600226146944506DA0A46002155
:102EE000404291418C462D2102E0210504D52B2141
:102EF0006A461173012103E0E10701D02021F7E7C1
:102F0000029155E00A200AE0102008E0102000900D
:102F10000021042004430191082703E00820002138
:102F2000019100906002410F022907D0189A01CA4E
:102F3000189200229446032908D008E01898C01D72
:102F4000C108C90005C91891944603E080B204295C
:102F500000D1C0B200210291210729D51199702911
:102F600006D0009A1021019B4A401A4305D00EE07A
:102F700040216A461173012108E06146014306D0F1
:102F800030216A4611731199517302210291009AFE
:102F90000821019B4A401A430AD16146014301D1ED
:102FA000610705D530216A46117301217F1E029108
:102FB0001199582904D035A10E910DA90D910DE05C
:102FC00037A1F9E76146019B009AFDF791F80E9B46
:102FD0008C469B5C0D9A521E0D9213706146014304
:102FE000F0D10D9805A9081A20300190600703D58B
:102FF00001200004844300E001270198874201DD9D
:10300000381A00E000200199009041180298091830
:103010000498401A0490E00306D421461A9B199A9A
:10302000049800F0B3F94519002706E003A81A9A9E
:10303000C05D199990476D1C7F1C02988742F5DB93
:10304000E0030CD521461A9B199A049800F09EF9CA
:10305000451904E01A9A3020199990476D1C00997F
:10306000481E00900029F5DC08E00D980D990078C5
:10307000491C0D911A9A199990476D1C0199481E87
:1030800001900029F1DC63E109280100303132337D
:103090003435363738396162636465660000000094
:1030A000303132333435363738394142434445467E
:1030B0000000000000F05AF94519761C307800280D
:1030C00000D0E2E528461BB0F0BD600700D406271B
:1030D0001898C01DC108C90048680A680831C30FA4
:1030E000DB071891190001D09CA108E0210501D54A
:1030F0009BA104E0E10701D09AA100E09AA143005E
:1031000011985B08109165280CD006DC452809D081
:1031100046281DD0472841D141E0662818D06728AD
:103120003CD13CE00021112F01DB112000E0781C94
:103130000191009008A911A8FFF7E8FC13990591E7
:103140000021119A15927F1C12980197009150E06E
:103150000120C00703900120019008A9009711A841
:10316000FFF7D4FC139A149905920022119B009248
:1031700012981593059A0192002901D0104602E099
:10318000791C40180190381A01D5019804E040429A
:10319000401E0090781C0190C01B029043E0012F5C
:1031A00000DA01270021112F01DD112000E038464F
:1031B0000191009008A911A8FFF7A8FC13990591A7
:1031C000119A0021129815920091019721070CD4B1
:1031D0000599B94201DB019900E00191012904DD63
:1031E000159A491E515C302906D0B84201DA011DFA
:1031F00005DA0121029115E00199491EEDE7002849
:1032000005DC0099411800910199091A03E0019A1F
:10321000411C914200DD01910099401A401C02902E
:103220000120C0070390200706D40299019881422B
:1032300002DB0020C043029000206946C87707AF38
:10324000012103980337C907884224D00220119036
:103250002B201290039800280CDA404203902D2076
:10326000129007E00A210398FCF7FAFF30317F1E25
:10327000039039701199481E11900029F2DC0398CF
:103280000028EFD1791E129808703078202108406C
:103290004530BF1E387006A8C01BC01D0390109893
:1032A0000078002800D00120019941180298C01729
:1032B0000918039809180498401A401E0490E00366
:1032C00006D421461A9B199A049800F05FF8451914
:1032D00010980078002803D01A9A199990476D1C0D
:1032E000E00324D521461A9B199A049800F04EF861
:1032F00045191CE00098002807DB009905988842D2
:1033000003DD1598405C199901E0199930201A9A4B
:10331000904700986D1C401C00900298401E02903F
:10332000002804D11A9A2E20199990476D1C0199F2
:10333000481E01900029DDDC05E038781A9A7F1CD0
:10334000199990476D1C0399481E03900029F4DCDD
:1033500021461A9B199A0498ACE600002D00000043
:103360002B0000002000000000000000F8B504461B
:1033700000251E461746880404D405E0394620205F
:10338000B0476D1C641EF9D52846F8BDFFB504464C
:10339000002581B01E46C80301D5302700E0202754
:1033A000880404D505E038460399B0476D1C641EB7
:1033B000F9D5284605B0F0BD10B5044601E0FFF789
:1033C0005FFA2078641C03490028F8D10A20FFF72F
:1033D00057FA10BD000000200000000000000000AF
:1033E00001020304060708090000000001020304AB
:1033F000030406080C101820300000000000000034
:103400000400000002000000080000000D0A202A4D
:103410002A2A20202020202053544D3332202049B6
:10342000415020424F4F544C4F41444552202020A0
:10343000202020202020202020202A2A2A000D0AB7
:10344000202A2A2A2A2A2A2A2A2A2A2A2A2A2A2AE6
:103450002A2A2A2A2A2A2A2A2A2A2A2A2A2A2A2ACC
:103460002A2A2A2A2A2A2A2A2A2A2A2A2A2A2A00E6
:103470000D0A457261736520436F6D706C657465EC
:1034800064212028746F6F6B2025646D73290D0AE9
:10349000000D0A50726F6772616D20436F6D706C22
:1034A00065746564212028746F6F6B2025646D73CB
:1034B000290D0A004572723A496E76616C69642082
:1034C000666C61736820617070210D000D0A507286
:1034D0006F6772616D696E6720466C6173682E2E2E
:1034E0002E0D000D0A45726173696E6720466C618E
:1034F00073682E2E2E0D000D0A526573746172745E
:10350000696E672073797374656D2E2E2E0D000021
:10351000303500080000002010000000EE2A0008EE
:103520004035000810000020E81F0000FE2A0008B7
:103530000000000001000000040000000000200066
:04000005080000C12E
:00000001FF
